:100000000C946B000C9493000C9493000C9493004C
:100010000C9493000C9493000C9493000C94930014
:100020000C9493000C9493000C9493000C94930004
:100030000C9493000C9493000C9493000C949300F4
:100040000C94BD050C9493000C9493000C949300B5
:100050000C9493000C9493000C9493000C949300D4
:100060000C9490040C949300C901D701DA010602A4
:10007000E001E501E801EB01EE01F101F601FB0110
:100080000002000000080002010000030407000055
:10009000000000000000010204081020408001025E
:1000A00004081020010204081020040404040404BD
:1000B000040402020202020203030303030300001A
:1000C0000000250028002B0000000000240027006D
:1000D0002A007C01370411241FBECFEFD8E0DEBF19
:1000E000CDBF11E0A0E0B1E0EAEDF2E102C0059081
:1000F0000D92A631B107D9F722E0A6E1B1E001C027
:100100001D92A336B207E1F710E0C6EDD0E004C0BF
:100110002297FE010E944509C23DD107C9F70E94FE
:1001200004070C946B090C940000DC01ED91FC9128
:100130000190F081E02D099462E270E087E991E09E
:100140000E942B0469EA71E087E991E00E942D0486
:100150006CEB71E087E991E00C9432048FE00E942F
:100160004E06BC0180E090E00E94110822E437E0D6
:100170004DE950E40E949F080E94E007DB0120EA5D
:1001800036E841E050E00E9449092CE933E140E0C3
:1001900050E00E9424092F593E4F4F4F5F4FCA0134
:1001A000B9010E9413082AE836E14EE45BE30E949D
:1001B0009F0820E030E040E251E40E949F080E9446
:1001C000E5077093200160931F01CB01089581E141
:1001D0000E944E06BC0180E090E00E94110822EDD2
:1001E00033ED46E35CE30E949F0820E030E04AE7FD
:1001F00054E40E949F080E94E50770931A016093DF
:100200001901CB01089580E10E944E06BC0180E0F7
:1002100090E00E94110820E030E048E453E40E949E
:100220009F0820E030E040E654E40E94780720E098
:1002300030E040E251E40E949F080E94E50770937D
:1002400018016093170180E090E008958EE00E940D
:100250004E0690932201809321010895CF92DF9260
:10026000EF92FF920F931F930E94070600911B01CC
:1002700010911C0120911D0130911E016B017C0128
:10028000C01AD10AE20AF30A970186010233110566
:100290002105310550F160931B0170931C0180937F
:1002A0001D0190931E018BE791E00E94360285E6C6
:1002B00091E00E9436028FE491E00E94360289E3C9
:1002C00091E00E94360283E291E00E9436020E9491
:1002D000AE000E94E7000E9403011F910F91FF9062
:1002E000EF90DF90CF900C9426011F910F91FF901B
:1002F000EF90DF90CF9008952AE034E046EF5BEF77
:1003000063E08BE791E00E940E022AE034E046EFC2
:100310005BEF64E085E691E00E940E022AE034E0A3
:1003200046EF5BEF68E08FE491E00E940E022AE066
:1003300034E046EF5BEF69E089E391E00E940E0252
:100340002AE034E046EF5BEF6AE083E291E00C9450
:100350000E0287E991E00E945003809316010895F0
:10036000909391018093920142E050E061E971E045
:1003700087E991E00C94A2038091160190E0FC01C2
:100380003297ED30F10508F041C0EC5CFF4F0C9462
:100390004309E0919701F09198010280F381E02DEB
:1003A00043E050E061E071E087E991E0099462E0A8
:1003B00070E002C062E270E087E991E00C94950081
:1003C00080911F01909120011FC08BE791E00BC02D
:1003D00085E691E008C08FE491E005C089E391E0F3
:1003E00002C083E291E00E9432020EC080911701A8
:1003F0009091180109C08091190190911A0104C0CF
:1004000080912101909122010C94B00108958EBD3C
:1004100000000DB407FEFDCF8EB50895CF93DF9396
:10042000EC01862F19821A821B821C821E821D8279
:100430001C861B861E861D86188A1F861A8A198AA4
:100440001C8A1B8A95E09D8B58874F833A872987A2
:10045000688361E00E94940661E08881DF91CF911A
:100460000C94CD06FC01858196810895CF92DF9290
:10047000EF92FF920F931F93CF93DF93EC01809144
:100480009501882399F09FB7F89480919501813068
:1004900059F48DB3809393012DB38091940180958D
:1004A00082238DBB9FBF02C0909393018EE58CBDCC
:1004B00081E08DBD0E94FE0260E088810E94CD0631
:1004C00080E00E94070290E09E878D8780E00E9476
:1004D000070290E0988B8F8780E00E94070290E0EF
:1004E0009A8B898B80E00E94070290E09C8B8B8B1B
:1004F00080919501882361F09FB7F8942091950130
:1005000080919301213019F48DBB9FBF01C08FBF33
:100510000E94340361E088810E94CD0680E090E073
:100520009D856F857889682B792B7C876B870F81F8
:10053000188566567640882777FD8095982F0E940B
:1005400013086B017C0169857A85601B710B882714
:1005500077FD8095982F0E9413089B01AC01C7017D
:10056000B6010E949F0820E030EC4CE456E40E9463
:1005700078076B017C01B801882777FD8095982F5B
:100580000E9413089B01AC01C701B6010E94140729
:100590000E94E0077E836D8369897A8983E0660F14
:1005A000771F8A95E1F78B899C89682B792B7A8B49
:1005B000698B882777FD8095982F0E94130820E08B
:1005C00030E048E453E40E949F0820E030EE4FEF13
:1005D00054E40E94780720E030E048E452E40E94AE
:1005E000130769837A838B839C83DF91CF911F915B
:1005F0000F91FF90EF90DF90CF900895CF93CFB7FA
:10060000F89480919601811127C0E4EBF0E0849189
:10061000E0EAF0E09491E82FF0E0EE0FFF1FE853DE
:10062000FF4FA591B4918C91892321F461E08AE078
:100630000E94CD0661E08AE00E9494068CB580613C
:100640008CBD8CB580648CBD61E08DE00E94940609
:1006500061E08BE00E949406809196018F5F809309
:100660009601CFBFCF9108959FB7F89480919601DE
:10067000882319F081508093960180919601811111
:1006800005C08CB58F7B8CBD109295019FBF0895DE
:100690008091CA0190E02091CB01821B91090895BD
:1006A0002091CB018091CA01281750F4E22FF0E08D
:1006B000E453FE4F808190E02F5F2093CB0108959B
:1006C0008FEF9FEF0895E091CB018091CA01E81769
:1006D00030F4F0E0E453FE4F808190E008958FEF16
:1006E0009FEF08950895E091A301F091A401309740
:1006F000E1F03091CB012091CA013217B0F040E017
:10070000242F30E02617370754F4DC01A20FB31F63
:100710005C91D901A453BE4F5C934F5FF1CF10920F
:10072000CB016093CA01CB0109940895E091A50122
:10073000F091A601309729F01092A9011092A8011A
:1007400009940895CF92DF92EF92FF920F931F9337
:10075000CF93DF937C01CB018A012091A701222353
:1007600089F0EB016B01C40ED51ECC15DD0569F0D7
:100770006991D701ED91FC910190F081E02DC701C5
:100780000995F3CF642F0E945D04C801DF91CF91DA
:100790001F910F91FF90EF90DF90CF900895CF932E
:1007A000DF931F92CDB7DEB769832091A701222383
:1007B000D1F02091A801203240F021E030E0FC018E
:1007C0003383228380E090E015C08091A901E82F57
:1007D000F0E0E655FE4F998190838F5F8093A901E9
:1007E0008093A80105C061E0CE0101960E945D04DE
:1007F00081E090E00F90DF91CF910895FC0113828A
:10080000128248EE53E060E070E0448355836683D3
:10081000778389E091E09183808308951092CB01E2
:100820001092CA011092A9011092A8010C943B04E5
:10083000CF93DF93EC01862F0E94590486E993E061
:100840000E947B0483E793E00E947604CE01DF914F
:10085000CF910C940E040C9418047093A40160932F
:10086000A30108957093A6016093A501089587E9F7
:1008700091E00C94FE031092590281E0809357029C
:100880001092560261E082E10E94CD0661E083E1B0
:100890000E94CD06E9EBF0E080818E7F808380812D
:1008A0008D7F808388E48093B80085E48093BC00CA
:1008B0000895880F8093BA000895613298F42091CA
:1008C0005902243089F460930E02FC0180E192E029
:1008D000DC012A2F281B261718F421912D93F9CF1C
:1008E00080E0089581E0089582E008959093530296
:1008F0008093520208959093550280935402089574
:1009000085ED8093BC008091BC0084FDFCCF1092EB
:100910005902089585EC8093BC0010925902089505
:100920001F920F920FB60F9211242F933F934F9364
:100930005F936F937F938F939F93AF93BF93EF9347
:10094000FF938091B900887F803609F49EC078F5C6
:10095000883209F45DC090F4803109F456C038F44F
:10096000882309F4F5C0883009F44FC0F5C08831F8
:1009700009F44EC0803209F45FC0EEC0803409F43F
:100980006AC058F4803309F457C0883309F0E4C0D2
:100990008093EC010E948A04DFC0803509F44FC0C7
:1009A000883509F45DC0883409F0D6C0D3C08839D1
:1009B00009F4C4C0A8F4883709F467C038F488364D
:1009C00009F463C0803709F460C0C6C0883809F4F0
:1009D000B5C0803909F45FC0803809F0BDC05BC084
:1009E000803B09F483C038F4803A09F466C0883A41
:1009F00009F47CC0B1C0803C09F4A4C0883C09F46F
:100A0000A1C0883B09F487C0A7C08091580210C0DC
:100A10009091310280913002981770F5E091310287
:100A200081E08E0F80933102F0E0EE5CFD4F80811B
:100A30008093BB0085EC83C08093EC018BC0E09178
:100A4000310281E08E0F809331028091BB00F0E093
:100A5000EE5CFD4F808390913102809130026BC03B
:100A6000E091310281E08E0F809331028091BB00D2
:100A7000F0E0EE5CFD4F80838091570281116AC0E7
:100A800081E08093560284EA5EC083E0809359023D
:100A90001092ED01CFCF8091ED01803208F04EC071
:100AA000E091ED0181E08E0F8093ED018091BB001C
:100AB000F0E0E251FE4F8083BDCF0E948A04809116
:100AC000ED01803230F4E091ED01F0E0E251FE4FB3
:100AD00010826091ED0170E0E0915202F0915302BA
:100AE0008EEE91E009951092ED0136C084E080937E
:100AF000590210920F0210920E02E0915402F091EE
:100B00005502099580910E02811105C081E0809304
:100B10000E0210921002E0910F0281E08E0F80937E
:100B20000F02F0E0E05FFD4F80818093BB00909169
:100B30000F0280910E02981708F47CCF85E880930D
:100B4000BC000AC085EC8093BC001092590204C01E
:100B50001092EC010E948004FF91EF91BF91AF9140
:100B60009F918F917F916F915F914F913F912F91C5
:100B70000F900FBE0F901F9018951F920F920FB6F7
:100B80000F9211242F933F938F939F93AF93BF9313
:100B900080915B0290915C02A0915D02B0915E0237
:100BA00030915A0223E0230F2D3720F40196A11D26
:100BB000B11D05C026E8230F0296A11DB11D20938B
:100BC0005A0280935B0290935C02A0935D02B09303
:100BD0005E0280915F0290916002A0916102B091EB
:100BE00062020196A11DB11D80935F029093600285
:100BF000A0936102B0936202BF91AF919F918F91D8
:100C00003F912F910F900FBE0F901F9018952FB707
:100C1000F89460915B0270915C0280915D0290910A
:100C20005E022FBF0895789484B5826084BD84B538
:100C3000816084BD85B5826085BD85B5816085BDD7
:100C4000EEE6F0E0808181608083E1E8F0E01082F0
:100C5000808182608083808181608083E0E8F0E031
:100C6000808181608083E1EBF0E08081846080831B
:100C7000E0EBF0E0808181608083EAE7F0E0808152
:100C800084608083808182608083808181608083B2
:100C90008081806880831092C10008958E3008F0B2
:100CA0008E5087702091000190E4299F90011124BB
:100CB000822B80937C0080917A00806480937A00FC
:100CC00080917A0086FDFCCF809178002091790098
:100CD00090E0922B0895833081F028F4813099F0D0
:100CE0008230A1F008958730A9F08830B9F08430BF
:100CF000D1F4809180008F7D03C0809180008F7738
:100D000080938000089584B58F7702C084B58F7D6D
:100D100084BD08958091B0008F7703C08091B000AA
:100D20008F7D8093B0000895CF93DF9390E0FC0116
:100D3000EA56FF4F2491FC01E655FF4F849188232A
:100D400049F190E0880F991FFC01E853FF4FA591EE
:100D5000B49182549F4FFC01C591D4919FB761110A
:100D600008C0F8948C91209582238C9388818223EB
:100D70000AC0623051F4F8948C91322F309583235D
:100D80008C938881822B888304C0F8948C91822B69
:100D90008C939FBFDF91CF9108950F931F93CF93B3
:100DA000DF931F92CDB7DEB7282F30E0F901EE5761
:100DB000FF4F8491F901EA56FF4F1491F901E6556E
:100DC000FF4F04910023C9F0882321F069830E941A
:100DD0006B066981E02FF0E0EE0FFF1FE254FF4F3A
:100DE000A591B4919FB7F8948C91611103C01095AF
:100DF000812301C0812B8C939FBF0F90DF91CF91F6
:100E00001F910F91089508950E9413060E940307F1
:100E10000E949C00C0E0D0E00E942E012097E1F3E8
:100E20000E940000F9CF5058BB27AA270ED04DC111
:100E30003ED130F043D120F031F49F3F11F41EF445
:100E400033C10EF4E095E7FB29C1E92F4FD180F3C0
:100E5000BA17620773078407950718F071F49EF5B7
:100E600067C10EF4E0950B2EBA2FA02D0B01B9012E
:100E700090010C01CA01A0011124FF27591B99F010
:100E8000593F50F4503E68F11A16F040A22F232F1C
:100E9000342F4427585FF3CF469537952795A7956C
:100EA000F0405395C9F77EF41F16BA0B620B730B13
:100EB000840BBAF09150A1F0FF0FBB1F661F771F84
:100EC000881FC2F70EC0BA0F621F731F841F48F439
:100ED000879577956795B795F7959E3F08F0B3CFBF
:100EE0009395880F08F09927EE0F979587950895A9
:100EF0000CD0EBC0E3D040F0DAD030F021F45F3F0B
:100F000019F0CCC0511115C1CFC0F0D098F399237E
:100F1000C9F35523B1F3951B550BBB27AA276217BD
:100F20007307840738F09F5F5F4F220F331F441F02
:100F3000AA1FA9F333D00E2E3AF0E0E830D091503A
:100F40005040E695001CCAF729D0FE2F27D0660F27
:100F5000771F881FBB1F261737074807AB07B0E866
:100F600009F0BB0B802DBF01FF2793585F4F2AF07C
:100F70009E3F510568F092C0DCC05F3FECF3983EA5
:100F8000DCF3869577956795B795F7959F5FC9F7D9
:100F9000880F911D9695879597F90895E1E0660F62
:100FA000771F881FBB1F621773078407BA0720F0DB
:100FB000621B730B840BBA0BEE1F88F7E095089544
:100FC00004D06894B111B5C0089598D088F09F57A7
:100FD00090F0B92F9927B751A0F0D1F0660F771F85
:100FE000881F991F1AF0BA95C9F712C0B13081F065
:100FF0009FD0B1E008959CC0672F782F8827B85FF5
:1010000039F0B93FCCF3869577956795B395D9F7C5
:101010003EF490958095709561957F4F8F4F9F4FCF
:101020000895E89409C097FB3EF4909580957095DB
:1010300061957F4F8F4F9F4F9923A9F0F92F96E924
:10104000BB279395F695879577956795B795F11199
:10105000F8CFFAF4BB0F11F460FF1BC06F5F7F4F36
:101060008F4F9F4F16C0882311F096E911C0772348
:1010700021F09EE8872F762F05C0662371F096E851
:10108000862F70E060E02AF09A95660F771F881F20
:10109000DAF7880F9695879597F9089597F99F67DE
:1010A00080E870E060E008959FEF80EC08950024F0
:1010B0000A941616170618060906089500240A94BD
:1010C00012161306140605060895092E0394000C43
:1010D00011F4882352F0BB0F40F4BF2B11F460FFD2
:1010E00004C06F5F7F4F8F4F9F4F089557FD9058FB
:1010F000440F551F59F05F3F71F04795880F97FBDC
:10110000991F61F09F3F79F0879508951216130695
:101110001406551FF2CF4695F1DF08C016161706C4
:101120001806991FF1CF86957105610508940895F9
:10113000E894BB2766277727CB0197F908950BD052
:10114000C4CFB5DF28F0BADF18F0952309F0A6CF99
:10115000ABCF1124EECFCADFA0F3959FD1F3950F4B
:1011600050E0551F629FF001729FBB27F00DB11D2B
:10117000639FAA27F00DB11DAA1F649F6627B00DBB
:10118000A11D661F829F2227B00DA11D621F739FA4
:10119000B00DA11D621F839FA00D611D221F749FB2
:1011A0003327A00D611D231F849F600D211D822FF9
:1011B000762F6A2F11249F5750408AF0E1F0882340
:1011C0004AF0EE0FFF1FBB1F661F771F881F91504D
:1011D0005040A9F79E3F510570F060CFAACF5F3F06
:1011E000ECF3983EDCF3869577956795B795F79580
:1011F000E7959F5FC1F7FE2B880F911D9695879508
:1012000097F90895A1E21A2EAA1BBB1BFD010DC080
:10121000AA1FBB1FEE1FFF1FA217B307E407F507A6
:1012200020F0A21BB30BE40BF50B661F771F881F82
:10123000991F1A9469F760957095809590959B0118
:10124000AC01BD01CF010895052E97FB1EF400945B
:101250000E943B0957FD07D00E94020907FC03D0FA
:101260004EF40C943B0950954095309521953F4F95
:101270004F4F5F4F089590958095709561957F4F82
:101280008F4F9F4F0895EE0FFF1F0590F491E02DB3
:101290000994B7FF0C9451090E945109821B930BCA
:1012A00008950E945C09A59F900DB49F900DA49F86
:1012B000800D911D11240895A29FB001B39FC0011C
:1012C000A39F700D811D1124911DB29F700D811D72
:0A12D0001124911D0895F894FFCF3A
:1012DA00013030320000000000CF03A2034803505F
:0612EA0003630372030020
:107E0000112484B714BE81FFF0D085E080938100F7
:107E100082E08093C00088E18093C10086E0809377
:107E2000C20080E18093C4008EE0C9D0259A86E02C
:107E300020E33CEF91E0309385002093840096BBD3
:107E4000B09BFECF1D9AA8958150A9F7CC24DD24C4
:107E500088248394B5E0AB2EA1E19A2EF3E0BF2EE7
:107E6000A2D0813461F49FD0082FAFD0023811F036
:107E7000013811F484E001C083E08DD089C08234E0
:107E800011F484E103C0853419F485E0A6D080C0E4
:107E9000853579F488D0E82EFF2485D0082F10E0AE
:107EA000102F00270E291F29000F111F8ED06801E7
:107EB0006FC0863521F484E090D080E0DECF843638
:107EC00009F040C070D06FD0082F6DD080E0C81688
:107ED00080E7D80618F4F601B7BEE895C0E0D1E017
:107EE00062D089930C17E1F7F0E0CF16F0E7DF06D8
:107EF00018F0F601B7BEE89568D007B600FCFDCFD4
:107F0000A601A0E0B1E02C9130E011968C91119780
:107F100090E0982F8827822B932B1296FA010C0160
:107F200087BEE89511244E5F5F4FF1E0A038BF0790
:107F300051F7F601A7BEE89507B600FCFDCF97BE46
:107F4000E89526C08437B1F42ED02DD0F82E2BD052
:107F50003CD0F601EF2C8F010F5F1F4F84911BD097
:107F6000EA94F801C1F70894C11CD11CFA94CF0C13
:107F7000D11C0EC0853739F428D08EE10CD085E9AC
:107F80000AD08FE07ACF813511F488E018D01DD067
:107F900080E101D065CF982F8091C00085FFFCCF94
:107FA0009093C60008958091C00087FFFCCF809118
:107FB000C00084FD01C0A8958091C6000895E0E648
:107FC000F0E098E1908380830895EDDF803219F02E
:107FD00088E0F5DFFFCF84E1DECF1F93182FE3DFCA
:107FE0001150E9F7F2DF1F91089580E0E8DFEE27F6
:047FF000FF270994CA
:027FFE00040479
:0400000300007E007B
:00000001FF
